{
  "_format": "hh-sol-artifact-1",
  "contractName": "Marketplace",
  "sourceName": "contracts/marketPlace.sol",
  "abi": [
    {
      "inputs": [
        {
          "internalType": "uint256",
          "name": "_feePercent",
          "type": "uint256"
        }
      ],
      "stateMutability": "nonpayable",
      "type": "constructor"
    },
    {
      "anonymous": false,
      "inputs": [
        {
          "indexed": false,
          "internalType": "uint256",
          "name": "itemId",
          "type": "uint256"
        },
        {
          "indexed": true,
          "internalType": "address",
          "name": "nft",
          "type": "address"
        },
        {
          "indexed": false,
          "internalType": "uint256",
          "name": "tokenId",
          "type": "uint256"
        },
        {
          "indexed": false,
          "internalType": "uint256",
          "name": "price",
          "type": "uint256"
        },
        {
          "indexed": true,
          "internalType": "address",
          "name": "seller",
          "type": "address"
        },
        {
          "indexed": true,
          "internalType": "address",
          "name": "buyer",
          "type": "address"
        }
      ],
      "name": "Bought",
      "type": "event"
    },
    {
      "anonymous": false,
      "inputs": [
        {
          "indexed": false,
          "internalType": "uint256",
          "name": "itemId",
          "type": "uint256"
        },
        {
          "indexed": true,
          "internalType": "address",
          "name": "nft",
          "type": "address"
        },
        {
          "indexed": false,
          "internalType": "uint256",
          "name": "tokenId",
          "type": "uint256"
        },
        {
          "indexed": true,
          "internalType": "address",
          "name": "seller",
          "type": "address"
        }
      ],
      "name": "Offered",
      "type": "event"
    },
    {
      "inputs": [],
      "name": "feeAccount",
      "outputs": [
        {
          "internalType": "address payable",
          "name": "",
          "type": "address"
        }
      ],
      "stateMutability": "view",
      "type": "function"
    },
    {
      "inputs": [],
      "name": "feePercent",
      "outputs": [
        {
          "internalType": "uint256",
          "name": "",
          "type": "uint256"
        }
      ],
      "stateMutability": "view",
      "type": "function"
    },
    {
      "inputs": [
        {
          "internalType": "uint256",
          "name": "_priceBackend",
          "type": "uint256"
        }
      ],
      "name": "getTotalPrice",
      "outputs": [
        {
          "internalType": "uint256",
          "name": "",
          "type": "uint256"
        }
      ],
      "stateMutability": "view",
      "type": "function"
    },
    {
      "inputs": [],
      "name": "itemCount",
      "outputs": [
        {
          "internalType": "uint256",
          "name": "",
          "type": "uint256"
        }
      ],
      "stateMutability": "view",
      "type": "function"
    },
    {
      "inputs": [
        {
          "internalType": "uint256",
          "name": "",
          "type": "uint256"
        }
      ],
      "name": "items",
      "outputs": [
        {
          "internalType": "uint256",
          "name": "itemId",
          "type": "uint256"
        },
        {
          "internalType": "contract IERC721",
          "name": "nft",
          "type": "address"
        },
        {
          "internalType": "uint256",
          "name": "tokenId",
          "type": "uint256"
        },
        {
          "internalType": "address payable",
          "name": "seller",
          "type": "address"
        },
        {
          "internalType": "bool",
          "name": "sold",
          "type": "bool"
        }
      ],
      "stateMutability": "view",
      "type": "function"
    },
    {
      "inputs": [
        {
          "internalType": "contract IERC721",
          "name": "_nft",
          "type": "address"
        },
        {
          "internalType": "uint256",
          "name": "_tokenId",
          "type": "uint256"
        }
      ],
      "name": "makeItem",
      "outputs": [],
      "stateMutability": "nonpayable",
      "type": "function"
    },
    {
      "inputs": [
        {
          "internalType": "uint256",
          "name": "_itemId",
          "type": "uint256"
        },
        {
          "internalType": "uint256",
          "name": "_priceBackend",
          "type": "uint256"
        }
      ],
      "name": "purchaseItem",
      "outputs": [],
      "stateMutability": "payable",
      "type": "function"
    }
  ],
  "bytecode": "0x60c060405234801561001057600080fd5b50604051611105380380611105833981810160405281019061003291906100b7565b60016000819055503373ffffffffffffffffffffffffffffffffffffffff1660808173ffffffffffffffffffffffffffffffffffffffff16815250508060a08181525050506100e4565b600080fd5b6000819050919050565b61009481610081565b811461009f57600080fd5b50565b6000815190506100b18161008b565b92915050565b6000602082840312156100cd576100cc61007c565b5b60006100db848285016100a2565b91505092915050565b60805160a051610fee6101176000396000818161041b01526104c60152600081816103f1015261068c0152610fee6000f3fe6080604052600436106100705760003560e01c80637fd6f15c1161004e5780637fd6f15c146100f4578063bfb231d21461011f578063ca7dd37514610160578063e06756981461019d57610070565b80631a1beae21461007557806365e17c9d1461009e5780636bfb0d01146100c9575b600080fd5b34801561008157600080fd5b5061009c6004803603810190610097919061098f565b6101b9565b005b3480156100aa57600080fd5b506100b36103ef565b6040516100c091906109f0565b60405180910390f35b3480156100d557600080fd5b506100de610413565b6040516100eb9190610a1a565b60405180910390f35b34801561010057600080fd5b50610109610419565b6040516101169190610a1a565b60405180910390f35b34801561012b57600080fd5b5061014660048036038101906101419190610a35565b61043d565b604051610157959493929190610adc565b60405180910390f35b34801561016c57600080fd5b5061018760048036038101906101829190610a35565b6104c0565b6040516101949190610a1a565b60405180910390f35b6101b760048036038101906101b29190610b2f565b61050d565b005b6101c161088a565b600160008154809291906101d490610b9e565b91905055508173ffffffffffffffffffffffffffffffffffffffff166323b872dd3330846040518463ffffffff1660e01b815260040161021693929190610bf6565b600060405180830381600087803b15801561023057600080fd5b505af1158015610244573d6000803e3d6000fd5b505050506040518060a0016040528060015481526020018373ffffffffffffffffffffffffffffffffffffffff1681526020018281526020013373ffffffffffffffffffffffffffffffffffffffff168152602001600015158152506002600060015481526020019081526020016000206000820151816000015560208201518160010160006101000a81548173ffffffffffffffffffffffffffffffffffffffff021916908373ffffffffffffffffffffffffffffffffffffffff1602179055506040820151816002015560608201518160030160006101000a81548173ffffffffffffffffffffffffffffffffffffffff021916908373ffffffffffffffffffffffffffffffffffffffff16021790555060808201518160030160146101000a81548160ff0219169083151502179055509050503373ffffffffffffffffffffffffffffffffffffffff168273ffffffffffffffffffffffffffffffffffffffff167f10f1b72b2e817956e912bed19a620c275e526fc6088975d0c498d788277facef600154846040516103db929190610c2d565b60405180910390a36103eb6108da565b5050565b7f000000000000000000000000000000000000000000000000000000000000000081565b60015481565b7f000000000000000000000000000000000000000000000000000000000000000081565b60026020528060005260406000206000915090508060000154908060010160009054906101000a900473ffffffffffffffffffffffffffffffffffffffff16908060020154908060030160009054906101000a900473ffffffffffffffffffffffffffffffffffffffff16908060030160149054906101000a900460ff16905085565b600060647f000000000000000000000000000000000000000000000000000000000000000060646104f19190610c56565b836104fc9190610cac565b6105069190610d35565b9050919050565b61051561088a565b6000610520826104c0565b9050600060026000858152602001908152602001600020905060008411801561054b57506001548411155b61058a576040517f08c379a000000000000000000000000000000000000000000000000000000000815260040161058190610dc3565b60405180910390fd5b813410156105cd576040517f08c379a00000000000000000000000000000000000000000000000000000000081526004016105c490610e55565b60405180910390fd5b8060030160149054906101000a900460ff161561061f576040517f08c379a000000000000000000000000000000000000000000000000000000000815260040161061690610ec1565b60405180910390fd5b8060030160009054906101000a900473ffffffffffffffffffffffffffffffffffffffff1673ffffffffffffffffffffffffffffffffffffffff166108fc849081150290604051600060405180830381858888f19350505050158015610689573d6000803e3d6000fd5b507f000000000000000000000000000000000000000000000000000000000000000073ffffffffffffffffffffffffffffffffffffffff166108fc84846106d09190610ee1565b9081150290604051600060405180830381858888f193505050501580156106fb573d6000803e3d6000fd5b5060018160030160146101000a81548160ff0219169083151502179055508060010160009054906101000a900473ffffffffffffffffffffffffffffffffffffffff1673ffffffffffffffffffffffffffffffffffffffff166323b872dd303384600201546040518463ffffffff1660e01b815260040161077e93929190610bf6565b600060405180830381600087803b15801561079857600080fd5b505af11580156107ac573d6000803e3d6000fd5b505050503373ffffffffffffffffffffffffffffffffffffffff168160030160009054906101000a900473ffffffffffffffffffffffffffffffffffffffff1673ffffffffffffffffffffffffffffffffffffffff168260010160009054906101000a900473ffffffffffffffffffffffffffffffffffffffff1673ffffffffffffffffffffffffffffffffffffffff167f8b4c9c8a607d67b321582dd8461041b1dc2ceeca70c8b7f37f8e02095cf2e76d8785600201548860405161087493929190610f15565b60405180910390a450506108866108da565b5050565b600260005414156108d0576040517f08c379a00000000000000000000000000000000000000000000000000000000081526004016108c790610f98565b60405180910390fd5b6002600081905550565b6001600081905550565b600080fd5b600073ffffffffffffffffffffffffffffffffffffffff82169050919050565b6000610914826108e9565b9050919050565b600061092682610909565b9050919050565b6109368161091b565b811461094157600080fd5b50565b6000813590506109538161092d565b92915050565b6000819050919050565b61096c81610959565b811461097757600080fd5b50565b60008135905061098981610963565b92915050565b600080604083850312156109a6576109a56108e4565b5b60006109b485828601610944565b92505060206109c58582860161097a565b9150509250929050565b60006109da826108e9565b9050919050565b6109ea816109cf565b82525050565b6000602082019050610a0560008301846109e1565b92915050565b610a1481610959565b82525050565b6000602082019050610a2f6000830184610a0b565b92915050565b600060208284031215610a4b57610a4a6108e4565b5b6000610a598482850161097a565b91505092915050565b6000819050919050565b6000610a87610a82610a7d846108e9565b610a62565b6108e9565b9050919050565b6000610a9982610a6c565b9050919050565b6000610aab82610a8e565b9050919050565b610abb81610aa0565b82525050565b60008115159050919050565b610ad681610ac1565b82525050565b600060a082019050610af16000830188610a0b565b610afe6020830187610ab2565b610b0b6040830186610a0b565b610b1860608301856109e1565b610b256080830184610acd565b9695505050505050565b60008060408385031215610b4657610b456108e4565b5b6000610b548582860161097a565b9250506020610b658582860161097a565b9150509250929050565b7f4e487b7100000000000000000000000000000000000000000000000000000000600052601160045260246000fd5b6000610ba982610959565b91507fffffffffffffffffffffffffffffffffffffffffffffffffffffffffffffffff821415610bdc57610bdb610b6f565b5b600182019050919050565b610bf081610909565b82525050565b6000606082019050610c0b6000830186610be7565b610c186020830185610be7565b610c256040830184610a0b565b949350505050565b6000604082019050610c426000830185610a0b565b610c4f6020830184610a0b565b9392505050565b6000610c6182610959565b9150610c6c83610959565b9250827fffffffffffffffffffffffffffffffffffffffffffffffffffffffffffffffff03821115610ca157610ca0610b6f565b5b828201905092915050565b6000610cb782610959565b9150610cc283610959565b9250817fffffffffffffffffffffffffffffffffffffffffffffffffffffffffffffffff0483118215151615610cfb57610cfa610b6f565b5b828202905092915050565b7f4e487b7100000000000000000000000000000000000000000000000000000000600052601260045260246000fd5b6000610d4082610959565b9150610d4b83610959565b925082610d5b57610d5a610d06565b5b828204905092915050565b600082825260208201905092915050565b7f6974656d20646f65736e27742065786973740000000000000000000000000000600082015250565b6000610dad601283610d66565b9150610db882610d77565b602082019050919050565b60006020820190508181036000830152610ddc81610da0565b9050919050565b7f6e6f7420656e6f75676820657468657220746f20636f766572206974656d207060008201527f7269636520616e64206d61726b65742066656500000000000000000000000000602082015250565b6000610e3f603383610d66565b9150610e4a82610de3565b604082019050919050565b60006020820190508181036000830152610e6e81610e32565b9050919050565b7f6974656d20616c726561647920736f6c64000000000000000000000000000000600082015250565b6000610eab601183610d66565b9150610eb682610e75565b602082019050919050565b60006020820190508181036000830152610eda81610e9e565b9050919050565b6000610eec82610959565b9150610ef783610959565b925082821015610f0a57610f09610b6f565b5b828203905092915050565b6000606082019050610f2a6000830186610a0b565b610f376020830185610a0b565b610f446040830184610a0b565b949350505050565b7f5265656e7472616e637947756172643a207265656e7472616e742063616c6c00600082015250565b6000610f82601f83610d66565b9150610f8d82610f4c565b602082019050919050565b60006020820190508181036000830152610fb181610f75565b905091905056fea26469706673582212201983742db0d90045fc179659ae51ab3a7d919b3bf935fde411192cf7f6042f0b64736f6c63430008090033",
  "linkReferences": {},
  "deployedLinkReferences": {}
}