{
  "_format": "hh-sol-artifact-1",
  "contractName": "Marketplace",
  "sourceName": "contracts/marketPlace.sol",
  "abi": [
    {
      "inputs": [
        {
          "internalType": "uint256",
          "name": "_feePercent",
          "type": "uint256"
        }
      ],
      "stateMutability": "nonpayable",
      "type": "constructor"
    },
    {
      "anonymous": false,
      "inputs": [
        {
          "indexed": false,
          "internalType": "uint256",
          "name": "itemId",
          "type": "uint256"
        },
        {
          "indexed": true,
          "internalType": "address",
          "name": "nft",
          "type": "address"
        },
        {
          "indexed": false,
          "internalType": "uint256",
          "name": "tokenId",
          "type": "uint256"
        },
        {
          "indexed": false,
          "internalType": "uint256",
          "name": "price",
          "type": "uint256"
        },
        {
          "indexed": true,
          "internalType": "address",
          "name": "seller",
          "type": "address"
        },
        {
          "indexed": true,
          "internalType": "address",
          "name": "buyer",
          "type": "address"
        }
      ],
      "name": "Bought",
      "type": "event"
    },
    {
      "anonymous": false,
      "inputs": [
        {
          "indexed": false,
          "internalType": "uint256",
          "name": "itemId",
          "type": "uint256"
        },
        {
          "indexed": true,
          "internalType": "address",
          "name": "nft",
          "type": "address"
        },
        {
          "indexed": false,
          "internalType": "uint256",
          "name": "tokenId",
          "type": "uint256"
        },
        {
          "indexed": true,
          "internalType": "address",
          "name": "seller",
          "type": "address"
        },
        {
          "indexed": true,
          "internalType": "address",
          "name": "buyer",
          "type": "address"
        }
      ],
      "name": "Exchanged",
      "type": "event"
    },
    {
      "anonymous": false,
      "inputs": [
        {
          "indexed": false,
          "internalType": "uint256",
          "name": "itemId",
          "type": "uint256"
        },
        {
          "indexed": true,
          "internalType": "address",
          "name": "nft",
          "type": "address"
        },
        {
          "indexed": false,
          "internalType": "uint256",
          "name": "tokenId",
          "type": "uint256"
        },
        {
          "indexed": true,
          "internalType": "address",
          "name": "seller",
          "type": "address"
        }
      ],
      "name": "Offered",
      "type": "event"
    },
    {
      "inputs": [
        {
          "internalType": "uint256",
          "name": "_itemId",
          "type": "uint256"
        },
        {
          "internalType": "uint256",
          "name": "_itemIdToExchangeBackend",
          "type": "uint256"
        }
      ],
      "name": "exchangeItem",
      "outputs": [],
      "stateMutability": "nonpayable",
      "type": "function"
    },
    {
      "inputs": [],
      "name": "feeAccount",
      "outputs": [
        {
          "internalType": "address payable",
          "name": "",
          "type": "address"
        }
      ],
      "stateMutability": "view",
      "type": "function"
    },
    {
      "inputs": [],
      "name": "feePercent",
      "outputs": [
        {
          "internalType": "uint256",
          "name": "",
          "type": "uint256"
        }
      ],
      "stateMutability": "view",
      "type": "function"
    },
    {
      "inputs": [
        {
          "internalType": "uint256",
          "name": "_priceBackend",
          "type": "uint256"
        }
      ],
      "name": "getTotalPrice",
      "outputs": [
        {
          "internalType": "uint256",
          "name": "",
          "type": "uint256"
        }
      ],
      "stateMutability": "view",
      "type": "function"
    },
    {
      "inputs": [],
      "name": "itemCount",
      "outputs": [
        {
          "internalType": "uint256",
          "name": "",
          "type": "uint256"
        }
      ],
      "stateMutability": "view",
      "type": "function"
    },
    {
      "inputs": [
        {
          "internalType": "uint256",
          "name": "",
          "type": "uint256"
        }
      ],
      "name": "items",
      "outputs": [
        {
          "internalType": "uint256",
          "name": "itemId",
          "type": "uint256"
        },
        {
          "internalType": "contract IERC721",
          "name": "nft",
          "type": "address"
        },
        {
          "internalType": "uint256",
          "name": "tokenId",
          "type": "uint256"
        },
        {
          "internalType": "address payable",
          "name": "seller",
          "type": "address"
        },
        {
          "internalType": "bool",
          "name": "sold",
          "type": "bool"
        }
      ],
      "stateMutability": "view",
      "type": "function"
    },
    {
      "inputs": [
        {
          "internalType": "contract IERC721",
          "name": "_nft",
          "type": "address"
        },
        {
          "internalType": "uint256",
          "name": "_tokenId",
          "type": "uint256"
        }
      ],
      "name": "makeItem",
      "outputs": [],
      "stateMutability": "nonpayable",
      "type": "function"
    },
    {
      "inputs": [
        {
          "internalType": "uint256",
          "name": "_itemId",
          "type": "uint256"
        },
        {
          "internalType": "uint256",
          "name": "_priceBackend",
          "type": "uint256"
        }
      ],
      "name": "purchaseItem",
      "outputs": [],
      "stateMutability": "payable",
      "type": "function"
    }
  ],
  "bytecode": "0x60c06040523480156200001157600080fd5b5060405162001997380380620019978339818101604052810190620000379190620000c2565b60016000819055503373ffffffffffffffffffffffffffffffffffffffff1660808173ffffffffffffffffffffffffffffffffffffffff16815250508060a0818152505050620000f4565b600080fd5b6000819050919050565b6200009c8162000087565b8114620000a857600080fd5b50565b600081519050620000bc8162000091565b92915050565b600060208284031215620000db57620000da62000082565b5b6000620000eb84828501620000ab565b91505092915050565b60805160a05161186f6200012860003960008181610b590152610c040152600081816104250152610dca015261186f6000f3fe60806040526004361061007b5760003560e01c80637fd6f15c1161004e5780637fd6f15c14610128578063bfb231d214610153578063ca7dd37514610194578063e0675698146101d15761007b565b80631a1beae21461008057806365e17c9d146100a95780636bfb0d01146100d45780636fb69f92146100ff575b600080fd5b34801561008c57600080fd5b506100a760048036038101906100a291906110cd565b6101ed565b005b3480156100b557600080fd5b506100be610423565b6040516100cb919061112e565b60405180910390f35b3480156100e057600080fd5b506100e9610447565b6040516100f69190611158565b60405180910390f35b34801561010b57600080fd5b5061012660048036038101906101219190611173565b61044d565b005b34801561013457600080fd5b5061013d610b57565b60405161014a9190611158565b60405180910390f35b34801561015f57600080fd5b5061017a600480360381019061017591906111b3565b610b7b565b60405161018b95949392919061125a565b60405180910390f35b3480156101a057600080fd5b506101bb60048036038101906101b691906111b3565b610bfe565b6040516101c89190611158565b60405180910390f35b6101eb60048036038101906101e69190611173565b610c4b565b005b6101f5610fc8565b60016000815480929190610208906112dc565b91905055508173ffffffffffffffffffffffffffffffffffffffff166323b872dd3330846040518463ffffffff1660e01b815260040161024a93929190611334565b600060405180830381600087803b15801561026457600080fd5b505af1158015610278573d6000803e3d6000fd5b505050506040518060a0016040528060015481526020018373ffffffffffffffffffffffffffffffffffffffff1681526020018281526020013373ffffffffffffffffffffffffffffffffffffffff168152602001600015158152506002600060015481526020019081526020016000206000820151816000015560208201518160010160006101000a81548173ffffffffffffffffffffffffffffffffffffffff021916908373ffffffffffffffffffffffffffffffffffffffff1602179055506040820151816002015560608201518160030160006101000a81548173ffffffffffffffffffffffffffffffffffffffff021916908373ffffffffffffffffffffffffffffffffffffffff16021790555060808201518160030160146101000a81548160ff0219169083151502179055509050503373ffffffffffffffffffffffffffffffffffffffff168273ffffffffffffffffffffffffffffffffffffffff167f10f1b72b2e817956e912bed19a620c275e526fc6088975d0c498d788277facef6001548460405161040f92919061136b565b60405180910390a361041f611018565b5050565b7f000000000000000000000000000000000000000000000000000000000000000081565b60015481565b610455610fc8565b6000600260008481526020019081526020016000209050600060026000848152602001908152602001600020905060008411801561049557506001548411155b6104d4576040517f08c379a00000000000000000000000000000000000000000000000000000000081526004016104cb906113f1565b60405180910390fd5b8160030160149054906101000a900460ff1615610526576040517f08c379a000000000000000000000000000000000000000000000000000000000815260040161051d9061145d565b60405180910390fd5b60008311801561053857506001548311155b610577576040517f08c379a000000000000000000000000000000000000000000000000000000000815260040161056e906113f1565b60405180910390fd5b8060030160149054906101000a900460ff16156105c9576040517f08c379a00000000000000000000000000000000000000000000000000000000081526004016105c09061145d565b60405180910390fd5b3073ffffffffffffffffffffffffffffffffffffffff168260010160009054906101000a900473ffffffffffffffffffffffffffffffffffffffff1673ffffffffffffffffffffffffffffffffffffffff16636352211e84600201546040518263ffffffff1660e01b81526004016106419190611158565b60206040518083038186803b15801561065957600080fd5b505afa15801561066d573d6000803e3d6000fd5b505050506040513d601f19601f8201168201806040525081019061069191906114a9565b73ffffffffffffffffffffffffffffffffffffffff16146106e7576040517f08c379a00000000000000000000000000000000000000000000000000000000081526004016106de90611548565b60405180910390fd5b3073ffffffffffffffffffffffffffffffffffffffff168160010160009054906101000a900473ffffffffffffffffffffffffffffffffffffffff1673ffffffffffffffffffffffffffffffffffffffff16636352211e83600201546040518263ffffffff1660e01b815260040161075f9190611158565b60206040518083038186803b15801561077757600080fd5b505afa15801561078b573d6000803e3d6000fd5b505050506040513d601f19601f820116820180604052508101906107af91906114a9565b73ffffffffffffffffffffffffffffffffffffffff1614610805576040517f08c379a00000000000000000000000000000000000000000000000000000000081526004016107fc90611548565b60405180910390fd5b8160010160009054906101000a900473ffffffffffffffffffffffffffffffffffffffff1673ffffffffffffffffffffffffffffffffffffffff166323b872dd303385600201546040518463ffffffff1660e01b815260040161086a93929190611334565b600060405180830381600087803b15801561088457600080fd5b505af1158015610898573d6000803e3d6000fd5b505050508060010160009054906101000a900473ffffffffffffffffffffffffffffffffffffffff1673ffffffffffffffffffffffffffffffffffffffff166323b872dd306002600088815260200190815260200160002060030160009054906101000a900473ffffffffffffffffffffffffffffffffffffffff1684600201546040518463ffffffff1660e01b815260040161093793929190611589565b600060405180830381600087803b15801561095157600080fd5b505af1158015610965573d6000803e3d6000fd5b5050505060018260030160146101000a81548160ff02191690831515021790555060018160030160146101000a81548160ff0219169083151502179055503373ffffffffffffffffffffffffffffffffffffffff168260030160009054906101000a900473ffffffffffffffffffffffffffffffffffffffff1673ffffffffffffffffffffffffffffffffffffffff168360010160009054906101000a900473ffffffffffffffffffffffffffffffffffffffff1673ffffffffffffffffffffffffffffffffffffffff167fb3760b227b015ddd906fe4a7fddc0a37ec9e557789ebc84acdf6005405e0fe3f878660020154604051610a6592919061136b565b60405180910390a46002600085815260200190815260200160002060030160009054906101000a900473ffffffffffffffffffffffffffffffffffffffff1673ffffffffffffffffffffffffffffffffffffffff163373ffffffffffffffffffffffffffffffffffffffff168260010160009054906101000a900473ffffffffffffffffffffffffffffffffffffffff1673ffffffffffffffffffffffffffffffffffffffff167fb3760b227b015ddd906fe4a7fddc0a37ec9e557789ebc84acdf6005405e0fe3f868560020154604051610b4192919061136b565b60405180910390a45050610b53611018565b5050565b7f000000000000000000000000000000000000000000000000000000000000000081565b60026020528060005260406000206000915090508060000154908060010160009054906101000a900473ffffffffffffffffffffffffffffffffffffffff16908060020154908060030160009054906101000a900473ffffffffffffffffffffffffffffffffffffffff16908060030160149054906101000a900460ff16905085565b600060647f00000000000000000000000000000000000000000000000000000000000000006064610c2f91906115c0565b83610c3a9190611616565b610c44919061169f565b9050919050565b610c53610fc8565b6000610c5e82610bfe565b90506000600260008581526020019081526020016000209050600084118015610c8957506001548411155b610cc8576040517f08c379a0000000000000000000000000000000000000000000000000000000008152600401610cbf906113f1565b60405180910390fd5b81341015610d0b576040517f08c379a0000000000000000000000000000000000000000000000000000000008152600401610d0290611742565b60405180910390fd5b8060030160149054906101000a900460ff1615610d5d576040517f08c379a0000000000000000000000000000000000000000000000000000000008152600401610d549061145d565b60405180910390fd5b8060030160009054906101000a900473ffffffffffffffffffffffffffffffffffffffff1673ffffffffffffffffffffffffffffffffffffffff166108fc849081150290604051600060405180830381858888f19350505050158015610dc7573d6000803e3d6000fd5b507f000000000000000000000000000000000000000000000000000000000000000073ffffffffffffffffffffffffffffffffffffffff166108fc8484610e0e9190611762565b9081150290604051600060405180830381858888f19350505050158015610e39573d6000803e3d6000fd5b5060018160030160146101000a81548160ff0219169083151502179055508060010160009054906101000a900473ffffffffffffffffffffffffffffffffffffffff1673ffffffffffffffffffffffffffffffffffffffff166323b872dd303384600201546040518463ffffffff1660e01b8152600401610ebc93929190611334565b600060405180830381600087803b158015610ed657600080fd5b505af1158015610eea573d6000803e3d6000fd5b505050503373ffffffffffffffffffffffffffffffffffffffff168160030160009054906101000a900473ffffffffffffffffffffffffffffffffffffffff1673ffffffffffffffffffffffffffffffffffffffff168260010160009054906101000a900473ffffffffffffffffffffffffffffffffffffffff1673ffffffffffffffffffffffffffffffffffffffff167f8b4c9c8a607d67b321582dd8461041b1dc2ceeca70c8b7f37f8e02095cf2e76d87856002015488604051610fb293929190611796565b60405180910390a45050610fc4611018565b5050565b6002600054141561100e576040517f08c379a000000000000000000000000000000000000000000000000000000000815260040161100590611819565b60405180910390fd5b6002600081905550565b6001600081905550565b600080fd5b600073ffffffffffffffffffffffffffffffffffffffff82169050919050565b600061105282611027565b9050919050565b600061106482611047565b9050919050565b61107481611059565b811461107f57600080fd5b50565b6000813590506110918161106b565b92915050565b6000819050919050565b6110aa81611097565b81146110b557600080fd5b50565b6000813590506110c7816110a1565b92915050565b600080604083850312156110e4576110e3611022565b5b60006110f285828601611082565b9250506020611103858286016110b8565b9150509250929050565b600061111882611027565b9050919050565b6111288161110d565b82525050565b6000602082019050611143600083018461111f565b92915050565b61115281611097565b82525050565b600060208201905061116d6000830184611149565b92915050565b6000806040838503121561118a57611189611022565b5b6000611198858286016110b8565b92505060206111a9858286016110b8565b9150509250929050565b6000602082840312156111c9576111c8611022565b5b60006111d7848285016110b8565b91505092915050565b6000819050919050565b60006112056112006111fb84611027565b6111e0565b611027565b9050919050565b6000611217826111ea565b9050919050565b60006112298261120c565b9050919050565b6112398161121e565b82525050565b60008115159050919050565b6112548161123f565b82525050565b600060a08201905061126f6000830188611149565b61127c6020830187611230565b6112896040830186611149565b611296606083018561111f565b6112a3608083018461124b565b9695505050505050565b7f4e487b7100000000000000000000000000000000000000000000000000000000600052601160045260246000fd5b60006112e782611097565b91507fffffffffffffffffffffffffffffffffffffffffffffffffffffffffffffffff82141561131a576113196112ad565b5b600182019050919050565b61132e81611047565b82525050565b60006060820190506113496000830186611325565b6113566020830185611325565b6113636040830184611149565b949350505050565b60006040820190506113806000830185611149565b61138d6020830184611149565b9392505050565b600082825260208201905092915050565b7f6974656d20646f65736e27742065786973740000000000000000000000000000600082015250565b60006113db601283611394565b91506113e6826113a5565b602082019050919050565b6000602082019050818103600083015261140a816113ce565b9050919050565b7f6974656d20616c726561647920736f6c64000000000000000000000000000000600082015250565b6000611447601183611394565b915061145282611411565b602082019050919050565b600060208201905081810360008301526114768161143a565b9050919050565b61148681611047565b811461149157600080fd5b50565b6000815190506114a38161147d565b92915050565b6000602082840312156114bf576114be611022565b5b60006114cd84828501611494565b91505092915050565b7f6d61726b6574706c616365206973206e6f7420746865206f776e6572206f662060008201527f746865206e667400000000000000000000000000000000000000000000000000602082015250565b6000611532602783611394565b915061153d826114d6565b604082019050919050565b6000602082019050818103600083015261156181611525565b9050919050565b60006115738261120c565b9050919050565b61158381611568565b82525050565b600060608201905061159e6000830186611325565b6115ab602083018561157a565b6115b86040830184611149565b949350505050565b60006115cb82611097565b91506115d683611097565b9250827fffffffffffffffffffffffffffffffffffffffffffffffffffffffffffffffff0382111561160b5761160a6112ad565b5b828201905092915050565b600061162182611097565b915061162c83611097565b9250817fffffffffffffffffffffffffffffffffffffffffffffffffffffffffffffffff0483118215151615611665576116646112ad565b5b828202905092915050565b7f4e487b7100000000000000000000000000000000000000000000000000000000600052601260045260246000fd5b60006116aa82611097565b91506116b583611097565b9250826116c5576116c4611670565b5b828204905092915050565b7f6e6f7420656e6f75676820657468657220746f20636f766572206974656d207060008201527f7269636520616e64206d61726b65742066656500000000000000000000000000602082015250565b600061172c603383611394565b9150611737826116d0565b604082019050919050565b6000602082019050818103600083015261175b8161171f565b9050919050565b600061176d82611097565b915061177883611097565b92508282101561178b5761178a6112ad565b5b828203905092915050565b60006060820190506117ab6000830186611149565b6117b86020830185611149565b6117c56040830184611149565b949350505050565b7f5265656e7472616e637947756172643a207265656e7472616e742063616c6c00600082015250565b6000611803601f83611394565b915061180e826117cd565b602082019050919050565b60006020820190508181036000830152611832816117f6565b905091905056fea26469706673582212208112a9bb2f3dbe62821127ae01d1ab25929a5e43f87e9f86a2f57dc90215f24864736f6c63430008090033",
  "linkReferences": {},
  "deployedLinkReferences": {}
}